:100000000C942A000C9447000C9447000C94470071
:100010000C9447000C9447000C9447000C94470044
:100020000C9447000C9447000C9447000C94470034
:100030000C9447000C9447000C9447000C94470024
:100040000C9447000C9447000C9447000C94470014
:100050000C94470011241FBECFE5D8E0DEBFCDBF12
:1000600011E0A0E6B0E0E4EFF0E102C005900D92EF
:10007000A437B107D9F711E0A4E7B1E001C01D92A0
:10008000A83AB107E1F70E943A050C9478080C945D
:100090000000CF93DF93EC010E94A4000E94AA000D
:1000A00080ED0E94B30080E00E94B30088810E942E
:1000B000B30089810E94B3008A810E94B3008B81C2
:1000C0000E94B3008C810E94B3008D810E94B30016
:1000D0008E810E94B3000E94B000DF91CF910895FD
:1000E000CF93DF93EC010E94A4000E94AA0080ED50
:1000F0000E94B30080E00E94B3000E94AA0081ED3C
:100100000E94B30081E00E94BA00888381E00E94CF
:10011000BA00898381E00E94BA008A8381E00E944C
:10012000BA008B8381E00E94BA008C8381E00E9438
:10013000BA008D8380E00E94BA008E830E94B000D6
:10014000DF91CF910895089588E480B986B78460DF
:1001500086BF089584EA86BF06B607FEFDCF0895E0
:1001600084E986BF089583B984E886BF06B607FE92
:10017000FDCF0895882319F084EC86BF02C084E87F
:1001800086BF06B607FEFDCF83B10895C2980895D5
:10019000C29A0895C09890917501983051F48BBB24
:1001A000C19A81EE94E00197F1F700C00000C19878
:1001B00008959BB3282F207F9F70922B9BBBC19AE1
:1001C000E3ECF9E03197F1F700C00000C1989BB370
:1001D0008295807F9F70892B8BBBC19A81EE94E0C2
:1001E0000197F1F700C00000C19808958CE00E94CB
:1001F000CA0008958EE00E94CA000895CF93DF934D
:10020000D82FC62F662321F480580E94CA0005C04B
:10021000613019F480540E94CA00809177018430C3
:1002200089F480917601843169F4C23029F48D2FEC
:100230008C560E94CA0006C0C33021F48D2F8C5208
:100240000E94CA00DF91CF91089581E00E94CA0008
:1002500080E80E94CA000895409375016093770179
:100260008093760187B3876087BBC29A483031F4A8
:100270008FEF8ABB88E30E94CA000CC08AB38F60EC
:100280008ABB83E30E94CA0082E30E94CA0088E21C
:100290000E94CA0081E00E94CA0086E00E94CA0053
:1002A0008CE00E94CA0080E80E94CA000895FC0108
:1002B000C09A80917501883021F08081882391F463
:1002C00008958081882381F131968BBBC19A81EE9C
:1002D00094E00197F1F700C00000C1988191882354
:1002E000A1F70895DF0111969BB3807F9F70892B42
:1002F0008BBBC19A81EE94E00197F1F700C000003A
:10030000C19880818295807F81939BB39F70892B58
:100310008BBBC19A81EE94E00197F1F700C0000019
:10032000C1988D91882301F70895C09A9091750125
:10033000983051F48BBBC19A81EE94E00197F1F7AC
:1003400000C00000C19808959BB3282F207F9F70A4
:10035000922B9BBBC19AE1EEF4E03197F1F700C01C
:100360000000C1989BB38295807F9F70892B8BBBC7
:10037000C19A81EE94E00197F1F700C00000C198A6
:10038000089587E060E00E94FE00809193018F70E5
:10039000805D0E94950186E060E00E94FE008091F1
:1003A000930182958F708770805D0E949501809186
:1003B000780180939B01089584E060E00E94FE0034
:1003C000809194018F70805D0E94950183E060E0D0
:1003D0000E94FE008091940182958F708770805DED
:1003E0000E9495018091780180939201089581E0A7
:1003F00060E00E94FE00809195018F70805D0E94F8
:10040000950180E060E00E94FE0080919501829558
:100410008F708170805D0E9495018091780180933A
:100420009C01089587E061E00E94FE0080E690E074
:100430000E9457018AE061E00E94FE0080919901CC
:100440008F70805D0E94950189E061E00E94FE004E
:100450008091990182958F70805D0E9495018091B5
:10046000780180939A01089581E061E00E94FE0086
:10047000809197018F70805D0E94950180E061E01E
:100480000E94FE008091970182958F708370805D3D
:100490000E94950182E061E00E94FE0083E690E008
:1004A0000E9457018091780180939E01089589E010
:1004B00060E00E94FE0080917801882329F085E6A3
:1004C00090E00E94570104C08AE690E00E94570124
:1004D0008091780180937901089583E061E00E9422
:1004E000FE00809178018630E1F1873080F483301E
:1004F00049F1843030F48130D9F0823009F053C0B2
:100500001CC0843021F1853009F04DC025C08930F0
:10051000B9F18A3030F4873049F1883009F043C0AE
:100520002AC08131B9F18231D1F18031E1F52DC09C
:100530008FE690E00E94570136C084E790E00E9469
:10054000570131C089E790E00E9457012CC08EE727
:1005500090E00E94570127C083E890E00E94570175
:1005600022C088E890E00E9457011DC08DE890E00D
:100570000E94570118C082E990E00E94570113C001
:1005800087E990E00E9457010EC08CE990E00E943C
:10059000570109C081EA90E00E94570104C086EA31
:1005A00090E00E9457018091780180939F01089507
:1005B00080E062E00E94FE00809178018330D1F0FB
:1005C000843028F4813061F0823078F42CC085309A
:1005D000D9F08530A0F08630E1F0873059F51EC0A3
:1005E0008BEA90E00E94570125C085EB90E00E94C5
:1005F000570120C08FEB90E00E9457011BC089EC8F
:1006000090E00E94570116C083ED90E00E945701D0
:1006100011C08DED90E00E9457010CC087EE90E074
:100620000E94570107C081E08093960183E991E021
:100630000E9449008091780180938A01089587E59E
:100640008093930189E58093940189E480939501D7
:1006500083E08093960184E28093970180E1809308
:10066000980188E18093990183E991E00E94490013
:1006700008950E9425010E94F60085E061E00E9435
:10068000FE0081EF90E00E94570181E080937B01A2
:100690003091A701309387014091A6014295407F98
:1006A000409386019091A40190937A012091A30137
:1006B0002295207F20939D018091A1018093890143
:1006C0005091A0015295507F50937C0160917D0123
:1006D000613019F4506250937C01342B30938B01BC
:1006E000922B90938C0190917C01892B80938D01AA
:1006F0008FE39DE0A3E081509040A040E1F700C06F
:1007000000000E948D0708950F2EFBEFEF2EF0E002
:10071000FF2EF02D0F2EF4E2CF2EF1E0DF2EF02D84
:1007200008EA11E058010894A108B1080E942501C7
:1007300087E060E00E94FE00C7010E94570180E050
:1007400061E00E94FE000E94FA0081E091E00E94B8
:100750005701C6E2D1E08FC00E94F60080E061E060
:100760000E94FE008DE091E00E94570180E062E06F
:100770000E94FE008FE191E00E94570180917C0170
:1007800082958F70805D0E94950180918901805DC6
:100790000E949501C6010E94570180919D01805DD4
:1007A0000E94950180917A01805D0E949501C601A9
:1007B0000E94570180918601805D0E949501809181
:1007C0008701805D0E94950180917D01813021F437
:1007D000CE010E94570104C08AE291E00E945701B5
:1007E00080E063E00E94FE008EE291E00E945701EB
:1007F000B7993BC0B79BFECF0E94250184E061E022
:100800000E94FE0086E391E00E9457018FE39DE085
:10081000A3E081509040A040E1F700C000000E949A
:10082000250187E060E00E94FE00C7010E94570199
:1008300080E061E00E94FE000E94FA0081E091E009
:100840000E945701D8011C92F50110821092A60156
:100850001092A5011092A4011092A3011092A2017E
:100860001092A1011092A0010BC0B29904C0B29BDA
:10087000FECF0E948D0780917B01813009F46CCFFF
:1008800087E061E00E94FE0087E080938801C0EA73
:10089000D1E09924689491F8B29904C0B29BFECF3C
:1008A0000E948D07B79915C0B79BFECFD8011C9247
:1008B000F50110821092A6011092A5011092A401D8
:1008C0001092A3011092A2011092A1011092A00116
:1008D0002DCFB3992CC0B39BFECF80918801FE0130
:1008E000E80FF11D90819F5F909374019A3059F049
:1008F000963029F4863039F0833039F404C09230D0
:1009000021F4882311F41092740190917401809164
:100910008801FE01E80FF11D9083892F8F70805DA3
:100920000E9495018091880161E00E94FE00B499C7
:1009300030C0B49BFECF80918801FE01E80FF11D0D
:10094000908190937401992381F4863011F0833063
:1009500021F4F6E0F093740108C0882319F4909212
:10096000740103C08AE08093740180917401815006
:100970008093740190918801FE01E90FF11D80833D
:100980008F70805D0E9495018091880161E00E94D6
:10099000FE00B59920C0B59BFECF109274018091E6
:1009A0008801882321F498E0909388010CC0863058
:1009B00021F4A5E0A093880106C0809188018330CE
:1009C00011F4909288018091880181508093880170
:1009D00061E00E94FE00B6995FCFB69BFECF80918A
:1009E000A101833020F09091A001913031F0882353
:1009F000B1F48091A001882391F487E063E00E9424
:100A0000FE0084E491E00E9457018FE39DE0A3E0A3
:100A100081509040A040E1F700C0000087CECCE4B8
:100A2000D1E00AE411E089E061E00E94FE00B5999E
:100A30001AC0B59BFECF80917D01882359F4C8016F
:100A40000E94570189E061E00E94FE0081E08093EE
:100A50007D0109C0CE010E94570189E061E00E943A
:100A6000FE0010927D01B699DECFB69BFECF0E94AC
:100A70003903D9CF87B387BB88B38C6F88BB84E138
:100A800064E048E00E942C010E941F030E948D0731
:100A900080E090E008950F2EF6E88F2EF1E09F2E73
:100AA000F02DCEE7D1E00F2EFFE7CF2EF1E0DF2EC5
:100AB000F02D0E942501D4011C92E5E8F1E010829E
:100AC0001092840110928301109282011092810190
:100AD0001092800110927F0110927E0187E060E009
:100AE0000E94FE008EE491E00E94570180E061E0E8
:100AF0000E94FE000E94FA0084E591E00E945701E6
:100B000087E061E00E94FE0087E08093880106E0B4
:100B10000F2EFAE0BF2EF02DFF246894F1F80F2E6F
:100B2000F5E0EF2EF02D18E00F2EF3E86F2EF1E038
:100B30007F2EF02D0F2EF4E84F2EF1E05F2EF02DDA
:100B40000F2EF5E82F2EF1E03F2EF02DB79903C0C0
:100B5000B79BFECFAECFB29904C0B29BFECF0E942E
:100B60008403B3992BC0B39BFECF80918801FE0113
:100B7000E80FF11D90819F5F909374019A3019F4F2
:100B8000109274010AC0963041F4863021F083300F
:100B900011F0882311F410927401809174019091E6
:100BA0008801FE01E90FF11D80838F70805D0E9436
:100BB00095018091880161E00E94FE00B4992BC0EC
:100BC000B49BFECF80918801FE01E80FF11D90815A
:100BD00090937401992359F4863021F0833011F0F9
:100BE000882319F40093740102C0B09274018091BB
:100BF000740181508093740190918801FE01E90F86
:100C0000F11D80838F70805D0E9495018091880125
:100C100061E00E94FE00B5991EC0B59BFECF109208
:100C2000740180918801882319F4109388010BC006
:100C3000863019F4E092880106C0809188018330E3
:100C400011F4F0928801809188018150809388018D
:100C500061E00E94FE00B69979CFB69BFECFD60127
:100C60008C91882379F58881882361F5E0E8F1E0AB
:100C70008081882339F5A1E8B1E08C91882311F5B2
:100C8000329680818823F1F4D3018C918823D1F4AA
:100C9000F20180818823B1F4D1018C91882391F4F1
:100CA00087E063E00E94FE0084E491E00E94570127
:100CB0008FE39DE0A3E081509040A040E1F700C0A9
:100CC0000000F7CE0E94650641CFCF93DF93CDB7EA
:100CD000DEB729970FB6F894DEBF0FBECDBF0E94D6
:100CE000F6000E94250185E061E00E94FE00E09090
:100CF0008501FF24809084019924609082017724EB
:100D000040908101552420907F01332480917E0101
:100D1000282F30E03A8329830F2EF9E0AF2EF02DF3
:100D20001B82AC8230E03D8304E211E085E08E83DB
:100D30001F82CDC00F2EF0E3FF2EF02DF80C8B2D6F
:100D40000E9495018C2D0E949501C8010E945701B7
:100D50008D2D0E9495018E2D0E949501C8010E9443
:100D600057018F2D0E9495018885805D0E94950115
:100D7000B79904C0B79BFECF0E944B058FE39DE05F
:100D8000A3E081509040A040E1F700C00000B79977
:100D900004C0B79BFECF0E944B0585E061E00E9436
:100DA000FE00A885B9851197B987A887EFEFAF3FF7
:100DB000BE0729F681149104C1F0089481089108B6
:100DC000FFEF8F16FFEF9F0681F02C8128873D8172
:100DD000398705C00F2EF0E3EF2EF02DE60CA88525
:100DE000B985BB230CF0A6CFE5CF61147104C9F01F
:100DF000089461087108BFEF6B16BFEF7B0689F09E
:100E00008E809F80EC81E887FD81F98707C00F2ED7
:100E1000F0E3DF2EF02DD40CF986E8869920D4F685
:100E2000E4CF41145104B9F00894410851082FEF60
:100E300042162FEF520679F06C807D808E809F8065
:100E4000E62CF72C05C00F2EF0E3CF2EF02DC20CB0
:100E50007720ECF6E6CF21143104B9F0089421088C
:100E600031083FEF23163FEF330679F04E805F8065
:100E70006A2C7B80842C952CEA2CF72C03C0B9803B
:100E800080E3B80E5520FCF6E6CFA981BA81109711
:100E900009F11197BA83A983BB23E4F00F2EF9E07F
:100EA0002F2E3324F02D0F2EF5E04F2E5524F02D4C
:100EB0000F2EF9E06F2E7724F02D0F2EF5E08F2EF8
:100EC0009924F02D0F2EF9E0EF2EFF24F02D332082
:100ED000B4F6DBCF0DE511E085E063E00E94FE0093
:100EE000C8010E945701B699F7CFB69BFECF0E946A
:100EF0004B050E942501C6E6D1E085E061E00E9435
:100F0000FE00CE010E945701B699F7CFB69BFECFE7
:100F100010927B010E948D07F0CF8FE780939B0199
:100F200080939C01809392018093790180938A0140
:100F300080939E0180939A0180939F018093780112
:100F40000E9425010E94F60082E060E00E94FE00FF
:100F5000C4E2D1E0CE010E94570185E060E00E942A
:100F6000FE00CE010E94570103E911E0C5E9D1E07E
:100F70000F2EFDE84F2EF1E05F2EF02D0F2EF4E93D
:100F8000EF2EF1E0FF2EF02D0F2EFCE82F2EF1E0DA
:100F90003F2EF02D0F2EF7E9CF2EF1E0DF2EF02DB2
:100FA0000F2EF8E9AF2EF1E0BF2EF02D0F2EF9E94C
:100FB0008F2EF1E09F2EF02D0F2EF6E96F2EF1E02F
:100FC0007F2EF02DB29904C0B29BFECF0E944B053C
:100FD000C8010E94700080917B01813031F58881C9
:100FE00090E09C012F733070F201808190E028170F
:100FF0003907D9F4F701808190E09C012F77307098
:10100000F101808190E02817390779F4F801808197
:1010100090E09C012F773070EBE8F1E0808190E068
:101020002817390711F40E94790788818F718093FE
:10103000780190919C01891711F00E94F701F70146
:1010400080818F778093780190919201891711F0B8
:101050000E94DC01F80180818F7780937801909164
:101060009B01891711F00E94C101888190E0807274
:101070009070959587959595879595958795959574
:101080008795959587958093780190917901981728
:1010900011F00E945702F60180818F7380937801CE
:1010A00090919E01891711F00E943402F501808110
:1010B0008F718093780190919F01891711F00E94A0
:1010C0006D02F40180818093780190919A018917D3
:1010D00011F00E941202F3018081877080937801E1
:1010E00090918A01891709F46DCF0E94D8026ACFC6
:0410F000F894FFCFA2
:1010F400323000200020504D200020414D20004A75
:10110400616E200046656220004D617220004170CE
:101114007220004D617920004A756E20004A756C7A
:101124002000417567200053657020004F637420D0
:10113400004E6F76200044656320004D6F6E64613D
:10114400792020200054756573646179202000574C
:1011540065646E6573646179005468757273646163
:1011640079200046726964617920202000536174FB
:101174007572646179200053756E64617920202052
:1011840000414C41524D2053455400414C41524D75
:101194000030303A30303A303020414D00416C61FB
:1011A400726D20616C726561647920736574006688
:1011B4006F7220003A0020504D0020414D005245EE
:1011C400534554203F00416C61726D2072656D6F10
:1011D400766564004552524F520050004100544914
:1011E4004D45520030303A30303A30300054494D99
:1011F40045204F55540057414B45205550204255EA
:041204004444590005
:00000001FF
